:020000001DC021
:10000200FECFFDCFFCCFFBCFFACFF9CFF8CFF7CFA2
:1000120043C0F5CFF4CFF3CFF2CF52C0F0CFEFCF42
:10002200EECFEDCF00000000000080C0060004000B
:100032002600020060012C000000F894EE27ECBBC1
:10004200F1E0FBBFEBBFE5BFF8E1F1BDE1BD8DE043
:10005200A2E0BB27ED938A95E9F780E094E0A0E661
:10006200ED930197E9F7EEE2F0E085919591009723
:1000720061F0A591B59105901590BF01F001059031
:100082000D920197E1F7FB01F0CFEFE5EDBFE4E060
:10009200EEBFC0E6D1E016C0EA93FA93EFB7EA9357
:1000A200E6E0E2BF440C551CE8EEF3E0E415F5058A
:1000B20011F444245524E991EFBFF991E99118957F
:1000C20075B01895E4E0E8BBE3E4E7BBEEE7E5BB17
:1000D200E0E0E4BBEFE0E2BBE0EFE1BBE3E0E3BF83
:1000E200E6E0E2BFE0E0EFBDEEBDEDBDECBDE7BD99
:1000F200E6BDEBBDEABDE9BDE8BDE2BDE5BDE4BDDF
:10010200E3BDE5BFE1E0E9BFE0E0EAB9E0E8E8B974
:10011200E0E0E0BFE0E6E7B9EFE8E6B9E0E0EDB93C
:10012200E6BFA0E12ED07894FFCFFFCFAA93E2B32F
:10013200EF70AE2FE881E07FEA2BE2BB8BE08A957D
:10014200F1F7C19A8BE18A95F1F7C1988BE18A9513
:10015200F1F73FC0AA93A881E9DFE881E295E8833D
:10016200A881E4DF88EC90E00197F1F732C0A2E0C9
:1001720032D0ACE0EFDFA1E02ED0E0E0BE2E8E2E3A
:100182000895AA93E1B3E06FE1BBB99AB89ABB9A1A
:10019200C198C098C398A880E881E058E0936201B2
:1001A200E881E054E0936301A4E1B0E01FD017D0EE
:1001B20016D015D0A0E2BADF80E991E00197F1F7FD
:1001C200A8E2C8DFA4E0C6DFA5E8C4DFA6E0C2DF7C
:1001D200CEDF21960895BEDFA3E0B0E007C0A0E322
:1001E200A5DF80E991E00197F1F70895109639F0C3
:1001F20080EA9FE00197F1F7A8951197C9F7089552
:00000001FF
