:0C00000017C0FECFFDCFFCCFFBCFFACF26
:10000C00F9CFF8CFF7CF3DC0F5CFF4CFF3CFF2CF88
:10001C0058C0F0CFEFCFEECFEDCF000002000400C0
:10002C0026000000F894EE27ECBBF1E0FBBFEBBF21
:10003C00E5BFF8E1F1BDE1BD8DE0A2E0BB27ED939A
:10004C008A95E9F780E094E0A0E6ED930197E9F753
:10005C00E8E2F0E085919591009761F0A591B5915A
:10006C0005901590BF01F00105900D920197E1F7F5
:10007C00FB01F0CFEFE5EDBFE4E0EEBFC0E6D1E071
:10008C0022C0AA93EA93FA93EFB7EA93E6E0E2BFB1
:10009C00F20131962F01E8EEF3E0E415F50559F481
:1000AC0044245524A0E0C599A1E0E1E0EA2711F42D
:1000BC00C59801C0C59AE991EFBFF991E991A99151
:1000CC00189575B01895E4E0E8BBE3E2E7BBEEE702
:1000DC00E5BBE0E0E4BBEFE0E2BBE0EFE1BBE3E07B
:1000EC00E3BFE6E0E2BFE0E0EFBDEEBDEDBDECBD91
:1000FC00E7BDE6BDEBBDEABDE9BDE8BDE2BDE5BDD2
:10010C00E4BDE3BDE5BFE1E0E9BFE0E0EAB9E0E86A
:10011C00E8B9E0E0E0BFE0E6E7B9EFE8E6B9E0E037
:10012C00EDB9E6BF7894F89488E592E00197F1F781
:10013C00AFE0B0E003D07894F6CFFFCF109639F053
:10014C0080EA9FE00197F1F7A8951197C9F70895F8
:00000001FF
